:020000040000FA
:100000000010001001030000C1000000C10000004A
:1000100000000000000000000000000000000000E0
:10002000000000000000000000000000C10000000F
:100030000000000000000000C1000000C501000039
:10004000C1000000C1000000C1000000C1000000AC
:10005000C1000000C1000000C1000000C10000009C
:10006000C1000000C1000000C1000000C10000008C
:10007000C1000000C1000000C1000000C500000078
:10008000C10000002D020000850A0000C100000030
:10009000C1000000C1000000C1000000C10000005C
:1000A000C1000000C1000000C1000000C10000004C
:1000B000C1000000C1000000C1000000C10000003C
:1000C000FEE70000F0B4012189074C683C4A002398
:1000D000106A282C1DD006DC082C0FD0102C0DD057
:1000E000182C07D115E00425402C38D0502C40D0D6
:1000F000582C4DD01020086053715DE08370C370A0
:10010000437844685A1C4270E05C88602020886113
:1001100052E08478002C09D042784468531C437024
:10012000A25C8A608278521E827045E045784668FB
:100130006C1CE4B24470755D002D07D0102D16D1F3
:1001400004786406640E0470537110E0621C335D21
:10015000D2B28370531C4370B05C88602CE042784C
:100160004468531C4370A25C8270002A24D00D6046
:1001700022E0CE6AC4788768631CC3703E55106A5B
:100180008278521E1206120E827015D18D6113E014
:10019000CE6AC57887686C1CC4707E55106A457835
:1001A00046686C1C4470745D102C04D105786D0693
:1001B0006D0E057053710C6008208861F0BC7047AB
:1001C0000000001010B4144BD8690278401C1107CD
:1001D000D861090F121111480C290DDA09239C1A54
:1001E00001221346A3405B1EC3600D4B4900595AC0
:1001F0004162426010BC70470F29FBD0022242606E
:10020000084A002010600E29F4DA074C042121610D
:10021000D870106010BC7047000000100000014052
:10022000580C00000002005000E000E0084801689F
:1002300001600849C8780B790207120F9A4201D26F
:10024000802200E00022044B1A60401CC8707047F6
:1002500000000140000000100002005000000000FB
:10026000000000000000000000000000000000008E
:10027000000000000000000000000000000000007E
:10028000000000000000000000000000000000006E
:10029000000000000000000000000000000000005E
:1002A000000000000000000000000000000000004E
:1002B000000000000000000000000000000000003E
:1002C000000000000000000000000000000000002E
:1002D000000000000000000000000000000000001E
:1002E000000000000000000000000000000000000E
:1002F000000000000000000000000000FFFFFFFF02
:10030000FF4888B023218160FE498A6B8026B24372
:100310008A63C168C907FCD0FB4903220A63012331
:100320004B6300224A634B638B63F94CF7492160AE
:10033000F8490B614B614A614B618B610225456055
:10034000F54CF0212161E162F449216361631321DD
:10035000F34C8901E160C027276121626162491C79
:10036000A1626163EF49D1244C62C1248C62FD24F7
:10037000ED4924010C60ED490E60F521EC4C0901BA
:100380002160EC490E60006B400702D5EA4802602C
:10039000FEE7EB49E948486003200860EA48E9497C
:1003A000C16043601F21E948C9030160C803E849EF
:1003B000C8600120C0050861E649C0010862E6493D
:1003C0004B620321E44C49026161E54CE3496162FF
:1003D0000321490261612D2101614B2141614024CA
:1003E0000460E0480521C28149020182FF2109041D
:1003F00081610270428200274270FF4347710225EB
:10040000C5718371D849C2720C704A708D70142501
:10041000CD7010258D718782D4487821017042708B
:10042000062181708021C1704171C1714472827254
:100430000721C172CF4905750D78CD4C0020002DE4
:1004400005D00D5C2554401C0D5C002DF9D12254C3
:10045000C4480221077242728172C74981240C701C
:10046000C64D4D60C64DCD600C74C64C4C61C64C3B
:10047000CC612270C54D4D62C54D8D62C54DC64BD8
:10048000AC461D46C9622835046260330695059363
:10049000AB4BAA229A6055229A600A78002A06D0AD
:1004A000012A10D1B04A4A6000220A700BE082791A
:1004B000002A08D0AC4B828A1A71120A5A71802223
:1004C0000A70002282710A7C002A05D0012A7DD19F
:1004D000A64A4A6100220A7409228256002A76DB63
:1004E0000823C356002B05DB934203DA0022D243D4
:1004F00042727AE10A254557AE0703D59C4F561044
:10050000BE5D01E09A4EB65C002E01D1002BEDDB02
:10051000002D06D0012D2CD0022D5BD0032D58D1FB
:1005200094E09E4DF3005B19D5072E0F8F4DB61C3E
:100530002E711607760F52061036520FAE71B0327A
:100540002A725B1E5E78624656709B1C1E78921C57
:1005500016705E7856709B1C921C1E7816700225D1
:100560005E7856709B1C921C1E7816706D1EF7D11B
:10057000AAE0D3071D0F7D4BAD1C1D7115076D0F34
:10058000103552069D71520FB0321A723209844DE5
:100590009200AF5C1F73521957785F7397789F73FF
:1005A000D278DA733207960E7219403212781A74C2
:1005B000324641273A43AA5C5A74324642273A43AC
:1005C000AA5C9A7443221643AA5D01E0F0E081E040
:1005D000DA7479E0D3075509DB0F6D011F01D206EC
:1005E000ED19120FAA1857B26E4ADB029A18F300DF
:1005F000D218002F0DDBFB071D0F5C4BAD1C1D71CE
:100600003D076D0F10359D717D066D0FB0351D7264
:1006100004E0564DE3232B71AB712B72521E5678BA
:1006200063465E70921C16789B1C1E7056785E7036
:10063000921C9B1C16781E70022556785E70921CC8
:100640009B1C16781E706D1EF7D13DE05309D5072F
:100650005B01ED0E5B19D5062D0F5B195BB2D2075E
:1006600003D03207120F103200E03211D5004E4A8B
:10067000AA18002B0CDBDD072E0F3C4DB61C2E718B
:100680001E07760F10365B065B0FAE71B03303E0CA
:10069000364DE3232B71AB712B72521E5678634695
:1006A0005E70921C16789B1C1E7056785E70921CB1
:1006B0009B1C16781E70022556785E70921C9B1C3F
:1006C00016781E706D1EF7D1427A521C427280223B
:1006D0000A748AE007228256052A69D213007B44F5
:1006E0001B79DB189F44819A856E020003782F4D99
:1006F0005A005519203DED8B1D4E2D0AF31858E078
:10070000008004400082044040800440FF870100D4
:1007100080800440C080044000400440010200008A
:100720004040044080400440008000500080015060
:10073000403F005000020150000100507F4F120066
:1007400000400040FF04000000C0004000E100E065
:1007500000E400E000ED00E000000140FF3D490042
:10076000004001400000001024000010DD000010D7
:100770005C0000106C260000F4000010E00C00008B
:10078000040100104F0C0000140100104C0C00007C
:100790000C000010E8000010700C0000690E000052
:1007A000E90C000069160000690D00002C00001023
:1007B0001BE0DD7713463F3303723E324272032261
:1007C000827211E00378A54D5A00A54E5519203DBF
:1007D000F318AD7F2033DD7313465F3303725E324F
:1007E0004272032282720222C2712278002A45D10B
:1007F0003DE00278092A04D93125994B26329D77AC
:1008000003E03025964B30329D77DA773F22027233
:100810003C224272022282720122E5E7C5892A0B3C
:100820000A2A01D2303200E037328D4B1A722A0583
:10083000120F0A2A01D2303200E037325A722A06E9
:10084000120F0A2A01D2303200E037329A722A0798
:10085000120F0A2A01D2303200E03732DA72172240
:10086000027210224272022282720022BCE7C27A15
:10087000002A03D0802222700022C27205228256F2
:10088000002A09DA774A9268FF2378339A1A12B25B
:10089000002A1BDC002242714279002A16D1026A2A
:1008A000D268026213781B0609D4D26802621378F8
:1008B0001B0604D4D268026213781B0606D50123F6
:1008C00043710023537020235A06136005231B072E
:1008D0009A68002A01D0402500E00025624A156090
:1008E0004278D543ED071ED0002A0FD09D6A1346EB
:1008F000AB4300D0CCE501231A4342700022827042
:10090000584A9268FF3278324282C1E59B6A0A22D5
:100910009A43EFD0827001224270524A9268FF32AD
:1009200078324282B4E54F4DAD68468A751B2DB2D0
:10093000002D85780FDD002D06D09A6A954301D0F1
:100940008570A5E5002204E09B6A1342D2D15208CB
:10095000520042709CE56B422B400193022B06D063
:10096000082B0FD052085200082A73D10DE00278EC
:10097000002A01D0402200E08022C2813B4B0122AC
:100980005A6067E00122C27264E00278102A54D2F1
:100990000023374F0193BB545500304E07957353D6
:1009A000344B1B7802939B0704D00123BB5435467C
:1009B000079EAB53029B1B079B0F0AD0BB5C022513
:1009C0002B43BB54254B079D10265D5B3543079E8B
:1009D0009D53029B9B069B0F0BD0BB5C04252B43B6
:1009E000BB541E4B079DFF265D5B01363543079EBA
:1009F0009D53029B9B090BD0BB5C08252B43BB542A
:100A0000164B079D01265D5B36033543079E9D53BC
:100A1000521C0270828A184B52008282012282711B
:100A20000422C27108220271144A5361536993610E
:100A3000069BC361072313610CE00022C2700422ED
:100A400002710E4A0E4B536153699361059BC3615A
:100A500007231361019A42701AE500002C00001070
:100A60005C00001000C00040000100500040014048
:100A70004C0000100C000010BFC62D0000E000E08C
:100A8000FF9E2400654B1868186065490122C889DB
:100A9000FF2804D9FF380138C881CA717047F0B403
:100AA000040602275F4D002C13DAC40604D55F60EC
:100AB0000020C8818D8208E00407240F0123DB0396
:100AC000E340DB438B82401CC8818A71CA71F0BC51
:100AD0007047554C460614D50F204002C88140107F
:100AE00020608D828A71CA710820087150484F4A6F
:100AF0004261426982614F4ACA6107210161F0BCCB
:100B00007047860606D520239843C8810F2000022F
:100B100020607FE00E78B04217D35F6000200F2383
:100B2000C8811B022360B5408D828A71CA71C8706A
:100B3000082008713E483D4A4261426982613E4A4E
:100B4000CA6107210161F0BC70473C4B1F5C344B0C
:100B5000FF1FDD89A1235B012E461E4349235B0154
:100B60001D43092F09D23B007B441B79DB189F44AE
:100B7000140404041D04262F370005239B02184388
:100B8000C881042008712A482D4B43614369836161
:100B90002C4BCB610723036132E0A1204001088286
:100BA0000520CE814002886120601EE0A120400126
:100BB00008820520CE8100028861206015E049206E
:100BC000400108820320CD814002886120600CE052
:100BD0004920400108820920CD810002886103E09C
:100BE0000B8A1843C8818869206008200871104862
:100BF0000E4B436143698361134BCB610723036150
:100C0000C88913460407240FA340DB438B82401C92
:100C1000C8818A71CA71F0BC704700000040014071
:100C200000000010FFFF0000003C0050BFC62D0078
:100C300000E000E0700C0000A00C00004C00001070
:100C4000FF9E2400D00C0000C80C0000210010788A
:100C5000000300D5F0AF1000650151013E012C01E9
:100C60001B010B01FC00EE00E100D400C800BD0038
:100C700043FFFFFFFFFFFFFE47FFFFFFFFFFFFFEFA
:100C80004AFFFFFFFFFFFFFE53FFFFFFFFFFFFFFD6
:100C9000FFFFFFFEFFFFFFFD5BFFFFFEFFFFFFFD0E
:100CA00053FFFFFFFFFFFFFE4AFFFFFFFFFFFFFEB7
:100CB00047FFFFFFFFFFFFFE43FFFFFFFFFFFFFFB9
:100CC000FFFFFFFEFFFFFFFD4BFFFFFEFFFFFFFDEE
:100CD00025FFFFFE25FFFFFFFFFFFFFFFFFFFFFDDB
:100CE00040000414FFFF0000101F111F0000001F30
:100CF000001D15170015151F0007041F0017151DEF
:100D0000001F151D0001011F001F151F0017151FD3
:100D1000001F051F001F141C001F1111001C141FB1
:100D2000001F1515001F0505007C447C0000007C99
:100D30000074545C0054547C001C107C005C54749F
:100D4000007C54740004047C007C547C005C547C63
:100D5000007C147C007C5070007C44440070507C0B
:100D6000007C5454007C1414003E4149413E000074
:100D70000000427F400000000042615149460000EF
:100D80000022414949360000001814127F1000006B
:100D90000027454545390000003E494949320000D9
:100DA0000001710905030000003649494936000079
:100DB00000264949493E0000007C1211127C0000C7
:100DC000007F494949360000003E41414122000070
:100DD000007F4141221C0000007F49494941000039
:100DE000007F090909010000000000003E4149415F
:100DF0003E00000000427F40000000004261514977
:100E00004600000022414949360000001814127FB4
:100E10001000000027454545390000003E4949497A
:100E200032000000017109050300000036494949FC
:100E300036000000264949493E0000007C1211128C
:100E40007C0000007F494949360000003E41414195
:100E5000220000007F4141221C0000007F494949D7
:100E6000410000007F0909090100000000000000A6
:100E7000007E8195B1B195817E7EFFEBCFCFEBFFF8
:100E80007E0E1F3F7E3F1F0E00081C3E7F3E1C084B
:100E900000383A9FFF9F3A3800183CBEFFBE3C180E
:100EA000000000183C3C180000FFFFE7C3C3E7FF49
:100EB000FF003C664242663C00FFC399BDBD99C33A
:100EC000FF70F88888FD7F070F004E5FF1F15F4EDD
:100ED00000C0E0FF7F05050707C0FF7F0505657FB0
:100EE0003F5A5A3CE7E73C5A5A7F3E3E1C1C0808D2
:100EF0000008081C1C3E3E7F00002466FFFF66249D
:100F000000005F5F00005F5F00060F097F7F017FC9
:100F10007F409ABFA5A5FD59020070707070707077
:100F2000008094B6FFFFB694800004067F7F06041D
:100F3000000010307F7F3010000808082A3E1C088F
:100F400000081C3E2A080808003C3C2020202020E5
:100F500000081C3E08083E1C0830383C3E3E3C3829
:100F600030060E1E3E3E1E0E060000000000000071
:100F7000000000065F5F0600000003070000070393
:100F800000147F7F147F7F140000242E6B6B3A12B5
:100F900000466630180C666200307A4F5D377A483A
:100FA00000000004070300000000001C3E63410035
:100FB00000000041633E1C0000082A3E1C1C3E2A23
:100FC000080008083E3E080800000080E0600000BD
:100FD0000000080808080808000000006060000021
:100FE000006030180C060301001C3E6349633E1C80
:100FF000000040427F7F40400042637159496F6664
:101000000022634949497F3600181C16537F7F50E0
:10101000002F6F4949497931003C7E4B494978306E
:1010200000030371790D070300367F4949497F3674
:1010300000064F4949693F1E000000006666000037
:1010400000000080E6660000000000081C366341D6
:10105000000024242424242400004163361C0800BA
:1010600000020301595D0702003E7F415D5D1F1EC6
:10107000007C7E0B090B7E7C00417F7F49497F36D7
:10108000001C3E634141632200417F7F41633E1C5F
:1010900000417F7F495D416300417F7F491D01031E
:1010A000001C3E6341513372007F7F0808087F7F38
:1010B000000000417F7F410000307040417F3F01D0
:1010C00000417F7F081C776300417F7F4140607053
:1010D000007F7F0E1C0E7F7F007F7F060C187F7FB6
:1010E000003E7F4141417F3E00417F7F49090F061D
:1010F000003E7F4141E1FFBE00417F7F09197F66CD
:10110000000022674D597322000007437F7F430789
:10111000003F7F4040407F3F001F3F6040603F1FD7
:10112000003F7F6038607F3F0063771C081C776357
:101130000000074F78784F0700476371594D677378
:101140000000007F7F414100000103060C18306061
:1011500000000041417F7F0000080C0603060C08D8
:101160000080808080808080800000010306040071
:1011700000207454543C784000417F3F44447C3804
:1011800000387C4444446C2800387C44453F7F4010
:1011900000387C5454545C1800487E7F490903028F
:1011A0000098BCA4A4F87C0400417F7F08047C78EC
:1011B000000000447D7D4000000060E08080FD7DF7
:1011C00000417F7F10386C44000000417F7F400069
:1011D000007C7C0C780C7C7800047C7804047C789F
:1011E00000387C4444447C380084FCF8A4243C1837
:1011F00000183C24A4F8FC8400447C784C040C08BF
:1012000000485C54545474240004043F7F44642018
:10121000003C7C40403C7C40001C3C6040603C1CEE
:10122000003C7C6038607C3C00446C3810386C4476
:10123000009CBCA0A0A0FC7C00004C64745C4C64CE
:10124000000008083E774141000000007F7F000059
:1012500000004141773E0808000203010302030138
:101260000070784C464C7870001EBFA1A1E173124B
:10127000003D7D40403D7D4000387C5456575D1810
:1012800000227555553D794200217554543C7941F1
:1012900000207455573E784000207457573C7840E2
:1012A00000183CA4A4E46424003A7D5555555D1A09
:1012B00000397D5454545D1900387C5557565C18DC
:1012C000000001457C7C4101000201457D7D410219
:1012D000000000497B7A400000797D1612167D7966
:1012E00000787E1715177E78007C7C56575544444D
:1012F000002074547C7C5454007C7E0B097F7F4911
:10130000003A7D4545457D3A00397D4444447D3968
:1013100000387C4547467C38003A794141397A406B
:10132000003C7D43423C7C40009DBDA0A0A0FD7DD3
:1013300000193D6642663D19003D7D4040407D3DBF
:1013400000183C24E7E7242400487E7F49436620B8
:1013500000002B2FFCFC2F2B00FFFF09092FF6F8B4
:10136000A02060487E3F090302207456573D784014
:10137000000000487A7B410000387C4446477D38B5
:10138000003C7C42433D7C40000A7B710B0A7B7130
:10139000007A7B1933627B790000262F292F2F28B2
:1013A0000000262F292F2600000020705D4D406090
:1013B00020383808080808080008080808083838DD
:1013C00000426F3F18CCEEBB91426F3F586CD6FB8A
:1013D000410000307D7D300000081C3622081C369C
:1013E0002222361C0822361C08AA005500AA0055E5
:1013F00000AA55AA55AA55AA55AAFF55FFAAFF55F6
:10140000FF000000FFFF000000101010FFFF0000B1
:1014100000141414FFFF0000001010FFFF00FFFF76
:10142000001010F0F010F0F000141414FCFC000098
:10143000001414F7F700FFFF000000FFFF00FFFF9C
:10144000001414F4F404FCFC0014141717101F1FEC
:101450000010101F1F101F1F001414141F1F000066
:1014600000101010F0F00000000000001F1F10100E
:10147000101010101F1F101010101010F0F010108E
:1014800010000000FFFF10101010101010101010AE
:1014900010101010FFFF101010000000FFFF1414B8
:1014A000140000FFFF00FFFF1000001F1F101717A0
:1014B000140000FCFC04F4F414141417171017178C
:1014C000141414F4F404F4F4140000FFFF00F7F70C
:1014D0001414141414141414141414F7F700F7F754
:1014E00014141414171714141410101F1F101F1F96
:1014F00010141414F4F41414141010F0F010F0F08C
:101500001000001F1F101F1F100000001F1F1414C9
:1015100014000000FCFC1414140000F0F010F0F0B3
:10152000101010FFFF10FFFF10141414FFFF14140D
:10153000141010101F1F000000000000F0F0101029
:1015400010FFFFFFFFFFFFFFFFF0F0F0F0F0F0F003
:10155000F0FFFFFFFF0000000000000000FFFFFFA2
:10156000FF0F0F0F0F0F0F0F0F387C446C386C44B8
:10157000007E7F01095F7620007F7F010101030368
:1015800000047C7C047C7C040063775D49416363D8
:1015900000387C447C3C04040080FC7C40407C3C63
:1015A000000406027E7C0602000099BDE7E7BD99B3
:1015B000001C3E6B496B3E1C004C7E7301737E4CDD
:1015C000000030784A4F7D3900183C243C3C243CD4
:1015D0001898FC643C3E273D18001C3E6B49494965
:1015E000007C7E0202027E7C002A2A2A2A2A2A2ADB
:1015F000000044445F5F4444000040515B4E44405F
:10160000000040444E5B514000000000FEFF010717
:101610000660E080FF7F0000000008082A2A080812
:1016200000243612362436120000060F090F060079
:10163000000000001818000000000000080800006A
:1016400000103070C0FFFF010100011F1E011F1EAE
:10165000000011191D1712000000003C3C3C3C002A
:10166000000000000000000000000000000000007A
:1016700000F8049484849404F8F8FC6C7C7C6CFC82
:10168000F8E0F0F0E0F0F0E00080C0E0F0E0C080D2
:1016900000C0C0F03838F0C0C0C0E0F0F8F8F0E0AA
:1016A000C0000080C0C0800000FFFF7F3F3F7FFF81
:1016B000FF00C060202060C000FF3F9FDFDF9F3F32
:1016C000FF80C06074DC8C3C000078FC8484FC7873
:1016D000000000FCFC14141C1C00FCFC141414FC82
:1016E000FCA0A0C07878C0A0A0FEFCF8F0E04040CC
:1016F000004040E0F0F8FCFE00001018FCFC181060
:101700000000FCFC0000FCFC00387C44FCFC04FCF9
:10171000FCC4EE3A1232E6C40000000000000000F3
:1017200000001018FCFC181000001018FCFC181029
:1017300000000000FCFC000000808080A0E0C08071
:101740000080C0E0A080808000C0C00000000000D9
:101750000080C0E08080E0C0800080E0F0E0800099
:101760000030F0F0F0F0F030000000000000000069
:1017700000000038FCFC380000000E1E00001E0EA9
:101780000020F8F820F8F82000387C444747CC982F
:101790000030300080C060300080D87CE4BCD8408D
:1017A0000000101E0E000000000000F0F80C040005
:1017B000000000040CF8F0000080A0E0C0C0E0A031
:1017C00080008080E0E080800000000000000000D9
:1017D0000080808080808080000000000000000089
:1017E0000000000080C0603000F0F80CC4C40CF8A9
:1017F000F0001018FCFC000000080C84C4643C18C5
:1018000000080C444444FCB800C0E0B098FCFC80E4
:10181000007C7C444444C48400F0F84C4444C080C0
:10182000000C0C0484C47C3C00B8FC444444FCB868
:1018300000387C444444FCF80000000030300000D4
:101840000000000030300000000080C06030180848
:101850000000202020202020000008183060C080D8
:1018600000181C04C4E43C1800F0F808C8C8F8F0DC
:1018700000E0F0988C98F0E00004FCFC4444FCB8D4
:1018800000F0F80C04040C180004FCFC040CF8F044
:101890000004FCFC44E40C1C0004FCFC44E40C1CB0
:1018A00000F0F80C84848C9800FCFC404040FCFC68
:1018B00000000004FCFC04000000000004FCFC0428
:1018C0000004FCFCC0E03C1C0004FCFC0400000024
:1018D00000FCFC38707038FCFCFCFC3870E0FCFC50
:1018E00000F8FC040404FCF80004FCFC44447C38CC
:1018F00000F8FC040404FCF80004FCFC44C4FC38BC
:1019000000183C6444C49C18001C0C04FCFC040C2F
:101910001CFCFC000000FCFC00FCFC00000000FCC7
:10192000FCFCFC00808000FCFC0C1C30E0E0301C67
:101930000C1C3C60C0C0603C1C1C0C84C464341C87
:101940000C0000FCFC040400003870E0C0800000C3
:101950000000000404FCFC0000080C0603060C0850
:101960000000000000000000000000030704000069
:101970000000A0A0A0E0C0000004FCFC2060C0802B
:1019800000C0E020202060400080C06024FCFC00FB
:1019900000C0E0A0A0A0E0C00040F8FC440C18008B
:1019A00000C0E02020C0E0200004FCFC4020E0C09B
:1019B00000000020ECEC0000000000000020ECEC37
:1019C0000004FCFC80C0602000000004FCFC00005F
:1019D00000E0E060C0C060E0C020E0C02020E0C0C7
:1019E00000C0E0202020E0C00020E0C02020E0C0B7
:1019F00000C0E02020C0E0200020E0C06020E0C067
:101A00000040E0A020206040002020F8FC202000C2
:101A100000E0E00000E0E00000E0E000000000E0A6
:101A2000E0E0E000000000E0E02060C08080C060F6
:101A300020E0E0000000E0E000606020A0E0602026
:101A400000004040F8BC040400000000BCBC0000E2
:101A500000000404BCF8404000080C040C080C040E
:101A60000080C0603060C08000F0F80C04040C18E6
:101A700000E4E40000E4E40000C0E0A8ACA6E2C09A
:101A80000000A8ACA6ECC8000004A4A0A0E4C40018
:101A90000000A2A6ACE8C0000000A4AEAAEEC400FC
:101AA0000000E0F01010302000C0E8ACA6ACE8C0A8
:101AB00000C4E4A0A0A0E4C400C0E2A6ACA8E0C0BA
:101AC00000000424E0E004040000082CE6E60C0812
:101AD00000000226ECE8000000C2E2301830E2C24A
:101AE00000C0E2371537E2C00010F4F69391B03031
:101AF00000002060C0E020E0C0F0F84C44FCFC4452
:101B000000C0E82C262CE8C000C4E4202020E4C457
:101B100000C0E2262C28E0C000E8EC0606ECE80055
:101B200000E0E2060CE8E00000E4E4000000E4E489
:101B300000F2FA080808FAF200FAFA000000FAFACD
:101B400000F0F8080E0E08181020FCFE22060C000B
:101B500000444C58F0F0584C4402FEFE1292DEEC69
:101B600080004040FCFE42460400A8ACA6E2C00053
:101B700000000028ECE6020000C0E82C2622E0C0AD
:101B800000E0E80C06E2E0000028ECC42C28ECC4DD
:101B900000FAFB71E3C2FBF900004C5E525E5E503E
:101BA00000004C5E525E4C00000080EC6C000000B7
:101BB00000C0C04040404040004040404040C0C0A5
:101BC000003E3E80C0603018003E3E80C06030184D
:101BD00000000000ECEC00000080C060A0C06020AD
:101BE000002060C0A060C0800000AA005500AA00CC
:101BF00055AA55AA55AA55AA5555FFAAFF55FFAA99
:101C0000FF000000FFFF000000808080FFFF000059
:101C100000A0A0A0FFFF0000008080FFFF00FFFFEA
:101C2000008080808080808000A0A0A0E0E0000094
:101C300000A0A0BFBF00FFFF000000FFFF00FFFFEC
:101C400000A0A0A0A020E0E000A0A0BFBF80FFFFF8
:101C5000008080FFFF80FFFF00A0A0A0FFFF00002A
:101C6000008080808080000000000000FFFF8080F6
:101C700080808080FFFF8080808080808080808066
:101C800080000000FFFF80808080808080808080D6
:101C900080808080FFFF808080000000FFFFA0A088
:101CA000A00000FFFF00FFFF800000FFFF80BFBF1C
:101CB000A00000E0E020A0A0A0A0A0BFBF80BFBF08
:101CC000A0A0A0A0A020A0A0A00000FFFF00BFBF78
:101CD000A0A0A0A0A0A0A0A0A0A0A0BFBF00BFBF28
:101CE000A0A0A0A0BFBFA0A0A08080FFFF80FFFF9A
:101CF00080A0A0A0A0A0A0A0A080808080808080E4
:101D0000800000FFFF80FFFF80000000FFFFA0A019
:101D1000A0000000E0E0A0A0A00000808080808003
:101D2000808080FFFF80FFFF80A0A0A0FFFFA0A019
:101D3000A0808080FFFF0000000000008080808085
:101D400080FFFFFFFFFFFFFFFF808080808080809B
:101D500080FFFFFFFF0000000000000000FFFFFF0A
:101D6000FF7F7F7F7F7F7F7F7FC0E020E0C060209C
:101D700000F8FC0444FCB80000FCFC0404041C1C37
:101D80000010F0F010F0F01000183868C88818182B
:101D900000C0E020E0E020200000F0F00000F0F0C3
:101DA00000203010F0E030100000C8E83838E8C8F3
:101DB00000E0F0988898F0E00070F88C048CF870DF
:101DC000000080C85C74E4C400C0E020E0E020E0D3
:101DD000C0C0E020E0E030F8C800F0F84C44440017
:101DE00000F0F8080808F8F000909090909090901B
:101DF00000004040F0F040400000000818B0E04013
:101E0000000040E0B018080000000000F8FC041CCE
:101E100018000000FFFF000000008080B0B080804C
:101E2000004060206040602000000C1E121E0C006C
:101E300000000000808000000000000000000000A2
:101E40000080808000FEFE0202027E7C027E7C001A
:101E50000064765A4E6400000000F0F0F0F0F000EC
:101E60000000000000000000000000000000000072
:101E7000000708080909080807070F0F0E0E0F0FC3
:101E8000070103070F070301000001030703010017
:101E9000000101090E0E0901010001090F0F0901DE
:101EA000000000010303010000FFFFFEFCFCFEFF39
:101EB000FF0003060404060300FFFCF9FBFBF9FC2A
:101EC000FF070F08080F0700000002020F0F0202B1
:101ED000000C0E0F07000000001C1F0F00000E0F6B
:101EE000070202010F0F0102020F070301000000A9
:101EF000000000000103070F0000010307070301B2
:101F000000000D0D00000D0D000000000F0F000F70
:101F10000F08191312171D08000F0F0F0F0F0F0FC7
:101F20000000090B0F0F0B09000000000F0F00004D
:101F3000000002060F0F060200000000020301006D
:101F4000000001030200000000030302020202027B
:101F5000000001030000030100060707070707064A
:101F60000000000307030000000000000000000064
:101F7000000000000D0D0000000000000000000047
:101F800000020F0F020F0F0200060C0838380F076F
:101F9000000C060301000C0C00070F0808070F08CF
:101FA000000000000000000000000003070C080013
:101FB000000000080C0703000000020301010302F7
:101FC0000000000003030000000000101E0E0000CF
:101FD0000000000000000000000000000C0C0000E9
:101FE000000C0603010000000003070C08080C07A2
:101FF000030008080F0F0808000E0F0908080C0C52
:1020000000040C0808080F0700000000080F0F0864
:1020100000040C0808080F0700070F0808080F073E
:102020000000000F0F00000000070F0808080F074E
:1020300000000808080C0703000000000606000066
:10204000000000080E0600000000000103060C0856
:1020500000000101010101010000080C060301005C
:10206000000000000D0D000000070F080B0B0B0116
:10207000000F0F0000000F0F00080F0F08080F07D8
:102080000003070C08080C0600080F0F080C0703D4
:1020900000080F0F08080C0E00080F0F08000000C2
:1020A0000003070C0808070F000F0F0000000F0FB8
:1020B000000000080F0F080000070F08080F0700B6
:1020C00000080F0F00010F0E00080F0F08080C0E7C
:1020D000000F0F000000000F0F0F0F0000000F0F88
:1020E00000070F0808080F0700080F0F080000007E
:1020F00000070F080E3C3F2700080F0F00000F0FCE
:1021000000060E0808080F07000000080F0F08005F
:1021100000070F0808080F07000103060C0C060350
:1021200001030F0E03030E0F030C0E030101030E38
:102130000C0000080F0F0800000E0F090808080C1B
:102140000E00000F0F080800000000000103070E3A
:1021500000000008080F0F00000000000000000051
:10216000002020202020202020000000000000006F
:1021700000070F0808070F0800000F0F08080F07D7
:1021800000070F0808080C0400070F0808070F08CD
:1021900000070F0808080C0400080F0F08000000D3
:1021A00000276F48487F3F0000080F0F00000F0F07
:1021B000000000080F0F08000000307040407F3F13
:1021C00000080F0F01030E0C000000080F0F08009D
:1021D000000F0F000F0F000F0F000F0F00000F0F69
:1021E00000070F0808080F0700407F7F48080F0707
:1021F00000070F08487F7F4000080F0F080000000D
:1022000000040C09090B0E04000000070F080C0461
:1022100000070F0808070F08000103060C0C06034F
:1022200001070F0C07070C0F07080C060303060C29
:1022300008474F4848683F1F000C0E0B09080C0C5C
:1022400000000000070F0808000000000F0F00004A
:10225000000008080F070000000000000000000058
:10226000000707040404070700012326242C3E135B
:1022700000070F0808070F0800070F0808080C04DC
:1022800000070F0808070F0800070F0808070F08C6
:1022900000070F0808070F0800070F0808070F08B6
:1022A0000000011312161F0900070F0808080C048C
:1022B00000070F0808080C0400070F0808080C04A2
:1022C000000000080F0F0800000000080F0F0800B2
:1022D000000000080F0F0800000F0F0101010F0F91
:1022E000000F0F0101010F0F00080F0F08080C0C61
:1022F00000060F090F070D09080F0F00000F0F0848
:1023000000070F0808080F0700070F0808080F0745
:1023100000070F0808080F0700070F0808070F0835
:1023200000070F0808070F0800074F4848683F1FBD
:1023300000070F0808080F0700070F0808080F0715
:10234000000103020E0E0203010C0F0F08080C041B
:10235000000101010F0F010101080F0F0800070F15
:10236000081030203F1F000000070F0808070F0863
:10237000000000080F0F080000070F0808080F07EB
:1023800000070F0808070F0800000F0F00000F0FCD
:10239000000F0F0000010F0F000000000000000000
:1023A000000000000000000000070F0808080E06EB
:1023B0000007070000000000000000000000070701
:1023C0000006030124363A2E240603090C0A3F3F77
:1023D000000000070F0F07000000010302010302C5
:1023E00000020301020301000000AA005500AA0038
:1023F00055AA55AA55AA55AA5555FFAAFF55FFAA91
:10240000FF000000FFFF000000000000FFFF0000D1
:1024100000000000FFFF0000000000FFFF00FFFFC2
:10242000000000FFFF00FFFF00000000FFFF0000B2
:10243000000000FFFF00FFFF000000FFFF00FFFFA4
:10244000000000FFFF00FFFF000000000000000090
:10245000000000000000000000000000000000007C
:1024600000000000FFFF000000000000000000006E
:10247000000000000000000000000000FFFF00005E
:1024800000000000FFFF000000000000000000004E
:1024900000000000FFFF000000000000FFFF000040
:1024A000000000FFFF00FFFF000000000000000030
:1024B000000000FFFF00FFFF000000000000000020
:1024C000000000FFFF00FFFF000000FFFF00FFFF14
:1024D0000000000000000000000000FFFF00FFFF00
:1024E00000000000000000000000000000000000EC
:1024F00000000000FFFF0000000000FFFF00FFFFE2
:1025000000000000000000000000000000000000CB
:1025100000000000FFFF0000000000FFFF00FFFFC1
:10252000000000FFFF00FFFF00000000FFFF0000B1
:10253000000000000000000000000000FFFF00009D
:1025400000FFFFFFFFFFFFFFFFFFFFFFFFFFFFFF9A
:10255000FFFFFFFFFF0000000000000000FFFFFF83
:10256000FF0000000000000000070F080F070C0824
:10257000000F0F0000080F07000F0F000000000001
:1025800000000F0F000F0F00000C0E0B09080C0CC1
:1025900000070F080F07000000101F0F02020301C1
:1025A000000000000F0F00000000090B0E0E0B09C9
:1025B0000003070C080C070300080F0F000F0F089B
:1025C0000000070F08080F070001030203030203BE
:1025D00001090F0703020203010003070C080800AA
:1025E000000F0F0000000F0F000404040404040493
:1025F00000080808090908080800080A0B09080863
:1026000000000808090B0A0800000000FFFF000096
:1026100000070F080F07000000000000060600007A
:10262000000203010302030100000000000000009B
:102630000000000001010000000000000101000096
:10264000000003070C0F0F00000000000000000056
:102650000000000000000000000007070707070057
:1026600000000000000000000000000073746174AE
:10267000653D30782020202020202020636F6D6D64
:10268000616E6420636F756E743D202020202020D1
:10269000202020202020202020202020202020203A
:1026A00020202020202020202020202000000000AA
:1026B000000000000000000000000000000000001A
:1026C000000000000000000000000000000000000A
:0C26D000000000000000000000000000FE
:0400000500000301F3
:00000001FF
